:100000000C942A000C943F000C943F000C943F0089
:100010000C943F000C943F000C943F000C943F0064
:100020000C943F000C943F000C943F000C943F0054
:100030000C943F000C943F000C943F000C943F0044
:100040000C943F000C943F000C943F000C943F0034
:100050000C943F0011241FBECFE5D8E0DEBFCDBF1A
:1000600010E0A0E6B0E0E6E8F9E002C005900D92ED
:10007000A436B107D9F70E946C040C94C1040C9407
:100080000000DF93CF9300D000D000D0CDB7DEB713
:100090009C838B837E836D8319828B819C810097E7
:1000A000A9F1EB81FC8182818130E1F4EB81FC815B
:1000B0008081EB81FC8191819E012E5F3F4F692FF2
:1000C000A9010E94B6028A81882321F4ED81FE8174
:1000D00010821EC08A818130D9F4ED81FE8181E0D9
:1000E000808316C0EB81FC818281882389F48A8118
:1000F000813021F4ED81FE8110820AC08A8188233B
:1001000039F4ED81FE8181E0808302C082E0898341
:10011000898126960FB6F894DEBF0FBECDBFCF9172
:10012000DF910895DF93CF93CDB7DEB728970FB651
:10013000F894DEBF0FBECDBF8A836B834C831982D8
:100140008B81883008F0F4C08C81882309F077C057
:100150008A81282F30E038872F838F8198858130DE
:10016000910559F12F813885223031052CF48F818A
:100170009885009769F060C02F813885223031055D
:1001800089F18F8198858330910509F440C054C06E
:10019000AAE3B0E0EAE3F0E08081482F8B81282FCA
:1001A00030E081E090E0022E02C0880F991F0A948F
:1001B000E2F7809584238C93BDC0A7E3B0E0E7E32A
:1001C000F0E08081482F8B81282F30E081E090E0A3
:1001D000022E02C0880F991F0A94E2F780958423AB
:1001E0008C93A8C0A4E3B0E0E4E3F0E08081482F62
:1001F0008B81282F30E081E090E0022E02C0880F32
:10020000991F0A94E2F7809584238C9393C0A1E30D
:10021000B0E0E1E3F0E08081482F8B81282F30E0CF
:1002200081E090E0022E02C0880F991F0A94E2F745
:10023000809584238C937EC081E089837BC08C81F0
:10024000813009F072C08A81282F30E03E832D83EF
:100250008D819E818130910549F12D813E81223031
:1002600031052CF48D819E81009761F05BC02D815A
:100270003E812230310571F18D819E81833091055F
:10028000E9F150C0AAE3B0E0EAE3F0E08081482F52
:100290008B81282F30E081E090E0022E02C0880F91
:1002A000991F0A94E2F7842B8C9344C0A7E3B0E033
:1002B000E7E3F0E08081482F8B81282F30E081E058
:1002C00090E0022E02C0880F991F0A94E2F7842B57
:1002D0008C9330C0A4E3B0E0E4E3F0E08081482FE9
:1002E0008B81282F30E081E090E0022E02C0880F41
:1002F000991F0A94E2F7842B8C931CC0A1E3B0E011
:10030000E1E3F0E08081482F8B81282F30E081E00D
:1003100090E0022E02C0880F991F0A94E2F7842B06
:100320008C9308C081E0898305C081E0898302C085
:1003300081E08983898128960FB6F894DEBF0FBECD
:10034000CDBFCF91DF910895DF93CF93CDB7DEB7C7
:1003500028970FB6F894DEBF0FBECDBF8A836B839C
:100360004C8319828B81883008F0F4C08C818823FB
:1003700009F077C08A81282F30E038872F838F815A
:1003800098858130910559F12F81388522303105CA
:100390002CF48F819885009769F060C02F81388593
:1003A0002230310589F18F8198858330910509F4D8
:1003B00040C054C0ABE3B0E0EBE3F0E08081482FF5
:1003C0008B81282F30E081E090E0022E02C0880F60
:1003D000991F0A94E2F7809584238C93BDC0A8E30B
:1003E000B0E0E8E3F0E08081482F8B81282F30E0F7
:1003F00081E090E0022E02C0880F991F0A94E2F774
:10040000809584238C93A8C0A5E3B0E0E5E3F0E0F9
:100410008081482F8B81282F30E081E090E0022EF0
:1004200002C0880F991F0A94E2F7809584238C9369
:1004300093C0A2E3B0E0E2E3F0E08081482F8B813B
:10044000282F30E081E090E0022E02C0880F991F33
:100450000A94E2F7809584238C937EC081E089839F
:100460007BC08C81813009F072C08A81282F30E0F6
:100470003E832D838D819E818130910549F12D81AF
:100480003E81223031052CF48D819E81009761F0F0
:100490005BC02D813E812230310571F18D819E81BD
:1004A00083309105E9F150C0ABE3B0E0EBE3F0E05D
:1004B0008081482F8B81282F30E081E090E0022E50
:1004C00002C0880F991F0A94E2F7842B8C9344C0D2
:1004D000A8E3B0E0E8E3F0E08081482F8B81282F8B
:1004E00030E081E090E0022E02C0880F991F0A944C
:1004F000E2F7842B8C9330C0A5E3B0E0E5E3F0E0B5
:100500008081482F8B81282F30E081E090E0022EFF
:1005100002C0880F991F0A94E2F7842B8C931CC0A9
:10052000A2E3B0E0E2E3F0E08081482F8B81282F46
:1005300030E081E090E0022E02C0880F991F0A94FB
:10054000E2F7842B8C9308C081E0898305C081E0A9
:10055000898302C081E08983898128960FB6F89447
:10056000DEBF0FBECDBFCF91DF910895DF93CF9354
:10057000CDB7DEB727970FB6F894DEBF0FBECDBF5D
:100580008A836B835D834C8319828C819D81009764
:1005900009F47BC08B81883008F074C08A81282FD1
:1005A00030E03F832E834E815F814130510559F108
:1005B0008E819F818230910534F42E813F812115F7
:1005C000310569F05CC04E815F814230510579F19F
:1005D0008E819F818330910509F43DC050C0E9E3CD
:1005E000F0E08081282F30E08B81882F90E0A901F6
:1005F00002C0559547958A95E2F7CA018170EC8152
:10060000FD81808344C0E6E3F0E08081282F30E064
:100610008B81882F90E0A90102C0559547958A9556
:10062000E2F7CA018170EC81FD81808330C0E3E391
:10063000F0E08081282F30E08B81882F90E0A901A5
:1006400002C0559547958A95E2F7CA018170EC8101
:10065000FD8180831CC0E0E3F0E08081282F30E042
:100660008B81882F90E0A90102C0559547958A9506
:10067000E2F7CA018170EC81FD81808308C081E0CE
:10068000898305C081E0898302C082E089838981F2
:1006900027960FB6F894DEBF0FBECDBFCF91DF9186
:1006A0000895DF93CF9300D000D00F92CDB7DEB77F
:1006B0008A836B8319828A81282F30E03D832C83C3
:1006C0008C819D8181309105D1F02C813D8122303A
:1006D00031052CF48C819D81009761F01FC02C8125
:1006E0003D812230310581F08C819D8183309105DF
:1006F00081F014C0EAE3F0E08B81808311C0E7E36E
:10070000F0E08B8180830CC0E4E3F0E08B81808398
:1007100007C0E1E3F0E08B81808302C081E0898340
:1007200089810F900F900F900F900F90CF91DF91D4
:100730000895DF93CF9300D000D00F92CDB7DEB7EE
:100740008A836B8319828A81282F30E03D832C8332
:100750008C819D8181309105D1F02C813D812230A9
:1007600031052CF48C819D81009761F01FC02C8194
:100770003D812230310581F08C819D81833091054E
:1007800081F014C0EBE3F0E08B81808311C0E8E3DB
:10079000F0E08B8180830CC0E5E3F0E08B81808307
:1007A00007C0E2E3F0E08B81808302C081E08983AF
:1007B00089810F900F900F900F900F90CF91DF9144
:1007C0000895DF93CF9300D000D00F92CDB7DEB75E
:1007D0008A836B8319828B81883008F072C08A818A
:1007E000282F30E03D832C838C819D8181309105C1
:1007F00049F12C813D81223031052CF48C819D8181
:10080000009761F05BC02C813D812230310571F190
:100810008C819D8183309105E9F150C0ABE3B0E05C
:10082000EBE3F0E08081482F8B81282F30E081E0DE
:1008300090E0022E02C0880F991F0A94E2F78427E5
:100840008C9341C0A8E3B0E0E8E3F0E08081482F5A
:100850008B81282F30E081E090E0022E02C0880FCB
:10086000991F0A94E2F784278C932DC0A5E3B0E08A
:10087000E5E3F0E08081482F8B81282F30E081E094
:1008800090E0022E02C0880F991F0A94E2F7842795
:100890008C9319C0A2E3B0E0E2E3F0E08081482F3E
:1008A0008B81282F30E081E090E0022E02C0880F7B
:1008B000991F0A94E2F784278C9305C081E089830D
:1008C00002C081E0898389810F900F900F900F9073
:1008D0000F90CF91DF910895DF93CF93CDB7DEB71F
:1008E00029970FB6F894DEBF0FBECDBFCE0101969B
:1008F0009E838D83E0E6F0E0F887EF83F3E0F987ED
:10090000EF81F88500808F819885019698878F8385
:10091000ED81FE8100828D819E8101969E838D8373
:10092000998591509987E985EE2351F782E064E03B
:1009300041E00E94920089819A81692F40E00E94E3
:10094000920089819A81692F41E00E94A4019E0151
:100950002C5F3F4FCE010196B9010E9441008C816E
:10096000882331F482E064E041E00E94A401EFCFEB
:100970008C81813061F782E064E040E00E94A40154
:06098000E6CFF894FFCF62
:040986000302010067
:00000001FF
